:020000040800F2
:100000000050002021020008290200082D020008EB
:10001000A1020008A5020008ED020008000000008F
:100020000000000000000000000000003503000890
:1000300039030008000000003D0300088910000893
:100040005103000851030008510300085103000840
:100050005103000851030008510300085103000830
:100060005103000851030008510300085103000820
:100070005103000851030008510300085103000810
:100080005103000851030008510300085103000800
:1000900051030008510300085103000851030008F0
:1000A00051030008510300085103000851030008E0
:1000B00051030008510300085103000851030008D0
:1000C00051030008510300085103000851030008C0
:1000D00051030008510300085103000851030008B0
:1000E00051030008510300085103000800000000FC
:1000F0000000000000000000000000000000000000
:1001000000000000000000005FF808F100B583B0B7
:1001100000F0B4FD304B314A1360314A1360314B6B
:10012000314A03E011681960043304322F498B42CD
:10013000F8D32A4B1A682E4B9A4204D1284B1A68DE
:100140002C4B9A4200D0FEE7234B2B4A13602B4ADC
:1001500013602B4B02E000221A600433294A9342B9
:10016000F9D3254B1B6813B9244B1B6803B1FEE779
:1001700000F090FD694601A800F010FD224C234BD1
:100180001C1BA410002504E01F4B53F82530984792
:100190000135AC42F8DC1E4C1E4B1C1BA410002584
:1001A00004E01B4B53F8253098470135AC42F8DC8E
:1001B0000099019800F0ACFF0546174C174B1C1B2B
:1001C000A41004E0013C144B53F824309847002C51
:1001D000F8DC284600F0B4FCBABADECA0000002001
:1001E0008800002000000020681D00088C0000200E
:1001F00078563412325476988C000020600100202A
:100200008C000020640100207C0300087C030008AF
:100210007C0300087C0300087C0300087C030008C2
:1002200008B5FFF773FF00BF00BEFEE71EF0040F26
:100230000CBFEFF30880EFF309807146414A104785
:100240002DE9F04182B004468846134B5E6B9F6BEC
:100250009D6A1B6B13F0020F0DD00F4BDB6A002B56
:1002600009DA4BF6AB6100F091FD20B14FF000428E
:10027000094BDA620CE0094800F0A2FCCDF80080DE
:100280003B4632462946204600F008FD00BEFEE708
:1002900002B0BDE8F08100BF00ED00E0081D0008DD
:1002A00000BEFEE71EF0040F0CBFEFF30880EFF373
:1002B00009807146244A10472DE9F04182B0044676
:1002C0008846084B5E6B9F6B9D6A074800F078FC80
:1002D000CDF800803B4632462946204600F0DEFC41
:1002E00000BEFEE700ED00E0181D00081EF0040F40
:1002F0000CBFEFF30880EFF309807146134A1047F3
:100300002DE9F04182B004468846084B5E6B9F6B36
:100310009D6A074800F054FCCDF800803B46324609
:100320002946204600F0BAFC00BEFEE700ED00E0E2
:10033000241D000800BEFEE700BEFEE700BEFEE78B
:100340007047000041020008B902000801030008DC
:0403500000BEFEE706
:10035400681D0008000000208C000020681D0008B3
:1003640000000000000000008C0000206401002058
:08037400000000000000000081
:10037C0038B504460D46714B984207D003F580639F
:10038C00984203D09F216E4800F00AFCAB79012BF8
:10039C0003D9A0216A4800F003FCEB79012B03D9A7
:1003AC00A121674800F0FCFB2B7A012B03D9A22179
:1003BC00634800F0F5FB6B7A012B03D9A32160484D
:1003CC0000F0EEFBAB7A012B03D9A4215C4800F0C2
:1003DC00E7FBEB7A012B03D9A521594800F0E0FB90
:1003EC00AB78032B03D9A621554800F0D9FBEB7849
:1003FC00032B03D9A721524800F0D2FB2B790F2BEA
:10040C0003D9A8214E4800F0CBFB6B79072B03D9FD
:10041C00A9214B4800F0C4FB2B88013B9BB2B3F5E0
:10042C00806F03D3AA21464800F0BAFB236823F05F
:10043C0002032360236843F001032360002300E0E0
:10044C000133626812F0010F03D14FF6FF72934231
:10045C00F6D1636813F0010F6BD0AB79012B04D18B
:10046C00236843F08003236003E0236823F08003B8
:10047C002360EB79012B04D1236843F04003236004
:10048C0003E0236823F0400323602B7A012B04D173
:10049C00236843F02003236003E0236823F0200348
:1004AC0023606B7A012B04D1236843F01003236083
:1004BC0003E0236823F010032360AB7A012B04D1F3
:1004CC00236843F00803236003E0236823F0080348
:1004DC002360EB7A012B04D1236843F004032360DF
:1004EC0003E0236823F004032360AA78EB781B064F
:1004FC0043EA82732A7943EA02436A7943EA025354
:10050C002A88013A1343E361236823F00103236033
:10051C00002300E00133626812F0010F03D04FF6A4
:10052C00FF729342F6D1636813F0010F03D00020E1
:10053C0038BD002038BD012038BD00BF006400402C
:10054C00AC1A0008002383710122C271037243723A
:10055C008372C3728370C3700E23037142710423C0
:10056C000380704738B504460D460F4B984208D0AF
:10057C0003F58063984204D04FF4E3710B4800F00C
:10058C000FFB012D04D940F2C711084800F008FBFD
:10059C0025B1236843F48033236038BD236823F4EA
:1005AC008033236038BD00BF00640040AC1A0008E3
:1005BC00F8B505460C464F4B984208D003F58063BE
:1005CC00984204D040F207214B4800F0E9FA237A14
:1005DC0033B1042B04D04FF40271474800F0E0FA19
:1005EC00637A33B1022B04D040F20921424800F067
:1005FC00D7FAA37A082B04D940F20A213E4800F01E
:10060C00CFFAAB6813F0806F09D1AB6813F0006FB1
:10061C0007D1AB6813F0805F05D0022604E00026FA
:10062C0002E0012600E00426042E60D0374606F1D5
:10063C0018031B01EA5802F00102EA50237A9BB915
:10064C002368B3F5006F04D34FF409712A4800F006
:10065C00A7FA07F11801090168582368627A42EA7F
:10066C00435303436B5014E06368B3F1005F04D34E
:10067C0040F22A21204800F093FA07F118010901F1
:10068C0068586368227A42EAC302637A13430343CD
:10069C006B50A37A03F00F03A37207F11802120137
:1006AC00AB18596821F00F0159605968A07A0143C1
:1006BC005960A17B637B1B0443EA0163217B43EA02
:1006CC000123E17A0B4305EB0717C7F88831A17CAE
:1006DC00637C1B0443EA0163217C43EA0123E17B35
:1006EC000B43C7F88C31AB5843F00103AB50304689
:1006FC00F8BD00BF00640040AC1A000838B50546D0
:10070C000C46234B984208D003F58063984204D0E2
:10071C0040F252211F4800F043FA022C04D940F257
:10072C0053211C4800F03CFA012C0DD014B1022CC2
:10073C000ED015E0AB6823F07B4323F47F0323F446
:10074C007F4323F0FC030CE0AA68134B134008E032
:10075C00AB6823F06F4323F47C031B0C1B0400E0F9
:10076C0000230E4A93420BD001D83BB10EE00A4A4B
:10077C00934207D00A4A934206D007E0022038BDC4
:10078C00012038BD012038BD012038BD002038BD06
:10079C0000640040AC1A00080003000803000004C9
:1007AC0000000310F8B505460C46464B98421BD08A
:1007BC0003F58063984217D003F58063984213D0F9
:1007CC0003F5806398420FD003F5806398420BD0F9
:1007DC0003F58063984207D003F58063984203D0F9
:1007EC00B221394800F0DCF9E3788BB1042B0FD03F
:1007FC00282B0DD0482B0BD0142B09D0102B07D045
:10080C001C2B05D0182B03D0B3212F4800F0C8F9AE
:10081C0023881BB9B4212C4800F0C2F9E37803F00B
:10082C000F06304613F0100F0AD0A378013BDBB251
:10083C00022B03D9BB21244800F0B2F9A078304335
:10084C002378E3B12E68002316E001229A40218818
:10085C0032EA01010FD199000F278F4026EA0706D3
:10086C0000FA01F10E43E178282901D16A6102E016
:10087C00482900D12A610133072BE6D92E60238841
:10088C00FF2B1ED96E68002318E003F1080101222A
:10089C008A40218832EA01010FD199000F278F403D
:1008AC0026EA070600FA01F10E43E178282900D167
:1008BC006A61E178482900D12A610133072BE4D918
:1008CC006E60F8BD00080140DC1A000838B504461B
:1008DC000D46431E012B40F29080042800F08D80C1
:1008EC00082800F08A80634B984200F08680203301
:1008FC00984200F08280604B98427ED080339842C0
:10090C007BD05E4B984278D003F58073984274D0BC
:10091C0003F58073984270D0594B98426DD003F513
:10092C008063984269D0B0F5805F66D0B0F5EA1F5D
:10093C0063D0B0F5EB1F60D0B0F5004F5DD0514BDC
:10094C0098425AD00133984257D00233984254D02F
:10095C000433984251D0083398424ED0B0F1201F46
:10096C004BD03033984248D0474B984245D003F592
:10097C008073984241D003F5007398423DD0434BAD
:10098C0098423AD003F57063984236D0B0F5011F07
:10099C0033D03F4B984230D0013398422DD00233A4
:1009AC0098422AD00433984227D00833984224D056
:1009BC001033984221D0203398421ED040339842B5
:1009CC001BD08033984218D003F58073984214D012
:1009DC0003F50073984210D003F5806398420CD055
:1009EC0003F50063984208D003F58053984204D075
:1009FC0040F22A21274800F0D3F8012D04D940F207
:100A0C002B21244800F0CCF8002C02DA224BDB69B5
:100A1C0001E0214B5B68C4F30340A2B204F4401123
:100A2C00B1F5401F07D123F070631B48416821F0DA
:100A3C007061416011E014F4801F06D003218140E5
:100A4C0023EA010343F0706307E0610D090102FA28
:100A5C0001F123EA010343F070631DB1610D09013B
:100A6C008A401343002C02DA0B4AD36138BD0A4A80
:100A7C00536038BD1000140040001600000118002F
:100A8C0000081A00010020000001300000112000B5
:100A9C0001000080DC1A00080000014038B5044653
:100AAC000D460E4B034003B920B940F24A410C48A5
:100ABC0000F076F8012D04D940F24B41084800F0C3
:100ACC006FF825B1074A93691C43946138BD054AF8
:100ADC00936923EA0404946138BD00BF0200C0FF8F
:100AEC00101B00080010024038B504460D460E4B92
:100AFC00184200D120B940F269410C4800F050F87E
:100B0C00012D04D940F26A41084800F049F825B19A
:100B1C00074AD3691C43D46138BD054AD36923EA1B
:100B2C000404D46138BD00BF00360181101B0008DD
:100B3C0000100240FEE700BF08B5034800F052F871
:100B4C000120FFF7F7FF00BF401B000808B50D4B55
:100B5C001B6813B90C4A0B4B1A600A4B1A68C31C5E
:100B6C0023F00303134409498B4206D900F046FBDA
:100B7C000C2303604FF0FF3008BD02490B60104698
:100B8C0008BD00BF9000002064010020004C002034
:100B9C0001230360014B0B60704700BF0400002071
:100BAC0008B50A460146024800F004F8FFF7C4FFF6
:100BBC00941B00080FB400B583B004AB53F8042B9E
:100BCC0001938021064800F053FB002803DD014609
:100BDC00034800F049F803B05DF804EB04B070472B
:100BEC009800002010B5044600F00EFB014620468C
:100BFC0000F03AF80121024800F036F810BD00BFB1
:100C0C00841C00082DE9F04385B004460F4643567A
:100C1C0013BB042528462146ABBE04461FE03546CF
:100C2C00102E28BF1025002306E014F9011B04AA7E
:100C3C001A4402F8101C0133AB42F6D304AA134435
:100C4C00002203F8102CE9464FF0040840464946B0
:100C5C00ABBE8046761B00E00E46002EDFD1384638
:100C6C0005B0BDE8F08300BF08B5FFF7CBFF08BDAA
:100C7C0008B500F0FBF8024B024A9A6008BD00BFB1
:100C8C0000ED00E00000000808B500F017F908BD01
:100C9C00F8B504460D4617461E462648FFF78AFF50
:100CAC0021682548FFF786FF61682448FFF782FF1B
:100CBC00A1682348FFF77EFFE1682248FFF77AFF1F
:100CCC0021692148FFF776FF61692048FFF772FF21
:100CDC00A1691F48FFF76EFFE1691E48FFF76AFF25
:100CEC001D48FFF767FF29461C48FFF763FF1C4CA4
:100CFC00E16A1C48FFF75EFF216B1B48FFF75AFFA8
:100D0C00E16B1A48FFF756FF15F0800F03D03946F8
:100D1C001748FFF74FFF15F4004F03D03146154825
:100D2C00FFF748FF1448FFF745FF06991348FFF7F4
:100D3C0041FFF8BDEC1B0008FC1B00080C1C000854
:100D4C001C1C00082C1C00083C1C00084C1C000837
:100D5C005C1C00086C1C00087C1C0008881C00082B
:100D6C0000ED00E0981C0008A81C0008B81C000846
:100D7C00C81C0008D81C0008E81C0008F01C00085F
:100D8C0083691A888A4207D10268033A012A05D876
:100D9C0002338361012070470020704700207047A8
:100DAC0082B00023019300932C4A136843F48033E0
:100DBC0013602A4B1B6803F400330093019B01332F
:100DCC000193009B1BB9019BB3F5A06FF1D1234B91
:100DDC001B6813F4003F02D00123009301E00023B1
:100DEC000093009B012B36D11D4B1A6842F0100268
:100DFC001A601A6822F003021A601A6842F00202A2
:100E0C001A60A3F580535A685A605A685A605A6837
:100E1C0042F480625A605A6822F47C125A605A6812
:100E2C0042F4E8125A601A6842F080721A600B4B56
:100E3C001B6813F0007FFAD0084B5A6822F00302AB
:100E4C005A605A6842F002025A60044B5B6803F025
:100E5C000C03082BF9D102B0704700BF0010024000
:100E6C000020024008B5FFF79BFF08BD08B5104BEA
:100E7C001A6842F001021A6059680E4A0A405A6018
:100E8C001A6822F0847222F480321A601A6822F4F2
:100E9C0080221A605A6822F4FE025A604FF41F0234
:100EAC009A60FFF7DFFF4FF00062034B9A6008BDBA
:100EBC00001002400000FFF800ED00E01F4B5B68E3
:100ECC0003F00C03042B06D0082B08D03BBB1C4AA8
:100EDC001C4B1A6026E01A4A1A4B1A6022E0174A79
:100EEC0053685268C3F38343023312F4803F05D135
:100EFC00154A02FB03F3134A136013E00F4A5268BE
:100F0C0012F4003F05D0104A02FB03F30D4A1360A4
:100F1C0008E00B4A02FB03F30A4A136002E0084A9A
:100F2C00084B1A60054B5B68C3F30313074AD35C89
:100F3C00DAB204490B68D3400B60704700100240D2
:100F4C0000127A001C00002000093D000C0000205B
:100F5C0010B500240DE00E4B03EBC4035A680D4B87
:100F6C001B689A4204D10A4B53F8343003B19847AA
:100F7C000134012CEFD9074B1B68282B03D1142209
:100F8C00044B1A6010BD1433024A136010BD00BF2D
:100F9C00280100202000002008B500F049F814209A
:100FAC0000F04CF8084800F063F8002308E0074A0A
:100FBC00002142F8331002EBC30251600133DBB263
:100FCC00012BF4D908BD00BF5D0F000828010020DB
:100FDC0008B500F045F800BFFDE700BF124B53F811
:100FEC00313023B1104B03EBC1035B68ABB9026822
:100FFC00AAB130B445680D4BA3FB05431B0903EBA9
:10100C0083039C00A5420CD1074B43F83120426866
:10101C0003EBC1014A60002004E00220704703206A
:10102C007047012030BC704728010020CDCCCCCCBF
:10103C000622014B1A60704710E000E0054B03FBE1
:10104C0000F0054BA3FB00308009044B1860002016
:10105C00704700BF00A24A04D34D621014E000E0B8
:10106C00024A136843F001031360704710E000E07C
:10107C00014B1860704700BF1801002008B5024BE7
:10108C001B6803B1984708BD1801002010B50C4A25
:10109C00D37A0133DBB2D372C82B02D10022084BB6
:1010AC00DA7207490748FFF783FA0446002004E088
:1010BC0021460448FFF722FB40B20128F8D110BDAD
:1010CC004C0100200064004010B50C4AD37A013367
:1010DC00DBB2D372C82B02D10022084BDA7207495B
:1010EC000748FFF765FA0446002004E0214604484F
:1010FC00FFF704FB40B20128F8D110BD38010020E5
:10110C000064004030B58BB0374B0893142309931F
:10111C00364B0693282307934FF40063ADF8143035
:10112C0003238DF8163004208DF817004FF48052ED
:10113C00ADF810208DF8123018238DF813302C4B8D
:10114C0040F255421A6000245C601C725C7298720A
:10115C00DC7255221A73AA2159739A73254B40F2EB
:10116C00AB721A605C601C725C7202229A72DC7246
:10117C00EE221A730121FFF791FC01214FF0007050
:10118C00FFF7B2FC01210846FFF788FC1A4D05A9B0
:10119C002846FFF707FB04A92846FFF703FB214667
:1011AC004FF4EA10FFF792FB21464FF4EB10FFF7D8
:1011BC008DFB01A8FFF7C6F9A5F5244501A9284622
:1011CC00FFF7D6F821462846FFF7CCF9FFF7E4FEE7
:1011DC00214608A8FFF702FF012106A8FFF7FEFE33
:1011EC00FFF7F6FE00BFFDE799100008D5100008C8
:1011FC004C0100203801002000080140014B186808
:10120C00704700BF84000020034613F8012B002A0E
:10121C00FBD1181A0138704730B5141E05469BB027
:10122C00184604DA8B232B604FF0FF301DE04FF48F
:10123C000273ADF80C300CBF234604F1FF3302935C
:10124C0005934FF6FF7300910491ADF80E300246F2
:10125C001E9B6946284600F073F8431CBCBF8B23C9
:10126C002B6014B1009B00221A701BB030BD000023
:10127C0007B5009313460A46014603480068FFF77A
:10128C00CBFF03B05DF804FB840000202DE9F04790
:10129C008E6882469E420C46914698463ED88A8974
:1012AC0012F4906F3AD02568096902236F1A6569A8
:1012BC0005EB450595FBF3F57B1C43449D4238BF7C
:1012CC001D4653050FD5294600F04AFB064698B13A
:1012DC003A46216900F0D2FAA38923F4906343F0D3
:1012EC008003A38113E02A4600F098FB064670B9F0
:1012FC002169504600F0E8FA0C23CAF80030A389A3
:10130C004FF0FF3043F04003A381BDE8F087266126
:10131C003E44266046466561ED1BA560464528BFE8
:10132C00464649463246206800F0B3FAA3680020CE
:10133C009B1BA36023681E442660BDE8F087000059
:10134C002DE9F04F9DB003938B8980461C060D460A
:10135C0016460DD50B695BB9402100F001FB2860E6
:10136C00286118B90C23C8F80030CDE040236B611C
:10137C000023099320238DF82930DFF89CB130230A
:10138C008DF82A3037463C4614F8013B1BB9B7EBB5
:10139C00060910D003E0252BF9D02746F3E74B467E
:1013AC00324629464046FFF771FF013000F0A78016
:1013BC00099B4B4409933B78002B00F0A080002341
:1013CC004FF0FF3204930793059206938DF8533038
:1013DC001A930126052221784E4800F041FA671C29
:1013EC00049B38B14B4A3C46801A06FA00F018436D
:1013FC000490EFE7D90644BF20228DF853201A073A
:10140C0044BF2B228DF8532022782A2A03D0079A26
:10141C0000210A200BE0039A111D12680391002A87
:10142C0010DA524243F00200079204900BE0274678
:10143C003B780134303B092B03D800FB02320121ED
:10144C00F5E701B107923B782E2B1ED17B782A2B26
:10145C000AD1039B02371A1D1B680392002BB8BFDD
:10146C004FF0FF33059310E0002319460593781CC9
:10147C000A2407463A780130303A092A03D804FB8B
:10148C0001210123F5E703B10591032239782248A4
:10149C0000F0E6F940B14023CBEB000003FA00F07A
:1014AC00049B013718430490397806221B487E1C94
:1014BC008DF8281000F0D4F988B1194B33B9039B7F
:1014CC00073323F007030833039314E003AB0093B3
:1014DC002A46144B04A94046AFF3008007E003AB47
:1014EC0000932A460F4B04A9404600F093F8B0F144
:1014FC00FF3F824603D0099B5344099342E7AB89D3
:10150C005B0601D4099801E04FF0FF301DB0BDE837
:10151C00F08F00BF341D00083A1D00083E1D000866
:10152C0000000000991200082DE9F04791461F4673
:10153C000A698B6806469342B8BF1346C9F8003057
:10154C0091F843200C46DDF8208012B10133C9F824
:10155C0000302368990642BFD9F800300233C9F82D
:10156C000030256815F0060510D104F1190A07E0C2
:10157C000123524639463046C04701301AD0013556
:10158C00E368D9F800209B1A9D42F1DB94F84330B4
:10159C002268003318BF012392060FD5E1183020C2
:1015AC0081F843005A1C94F845102244023382F807
:1015BC00431003E04FF0FF30BDE8F08704F1430225
:1015CC0039463046C0470130F4D02268D9F8005073
:1015DC00E36802F00602042A08BF5D1B2269A368B7
:1015EC000CBF25EAE57500259342C4BF9B1AED1884
:1015FC004FF000091A344D4509D0012322463946D3
:10160C003046C0470130D5D009F10109F3E700207D
:10161C00BDE8F0872DE9F04317460A7E85B06E2AA7
:10162C00984606460C460C9B01F1430E00F0AE802A
:10163C0011D8632A22D009D8002A00F0BB80582A7E
:10164C0040F0CA8081F84520834955E0642A1ED0B9
:10165C00692A1CD0C0E0732A00F0B08009D86F2A28
:10166C002ED0702A40F0B8800A6842F020020A603E
:10167C003EE0752A24D0782A3AD0ADE01A6801F100
:10168C004205111D1960136884F84230A8E02168E6
:10169C001A6811F0800F02D0111D196008E011F0CA
:1016AC00400F02F10401196002D0B2F9003000E0E1
:1016BC001368002B3CDA2D225B4284F8432037E080
:1016CC0021681A6811F0800F02D0111D196007E013
:1016DC0011F0400F02F10401196001D0138800E0F1
:1016EC001368227E5C496F2A14BF0A2208221BE071
:1016FC0078225A4984F845202268186812F0800F25
:10170C0000F104051D6003D1550601D5038800E0E6
:10171C000368D00744BF42F0200222601BB9226844
:10172C0022F0200222601022002084F8430001E005
:10173C0049490A226568002DA56008DB206820F065
:10174C00040020602BB9002D7DD175460CE0002BD8
:10175C0079D07546B3FBF2F002FB1033CB5C05F885
:10176C00013D03460028F5D1082A0BD12368DA077E
:10177C0008D5236962689A42DEBF302305F8013C24
:10178C0005F1FF35C5EB0E0323612EE008681A68DE
:10179C0010F0800F496903D0101D1860136808E021
:1017AC0010F0400F02F104001860136801D019808A
:1017BC0000E0196000232361754616E01A68111DBC
:1017CC001960156800216268284600F049F808B1D4
:1017DC00401B6060636804E004F1420584F8422019
:1017EC0001232361002384F84330CDF800803B466D
:1017FC0003AA21463046FFF797FE013002D14FF085
:10180C00FF3026E023692A4639463046C04701306E
:10181C00F5D023689B0710D5002504F1190907E0C2
:10182C0001234A4639463046C0470130E7D00135DE
:10183C00E368039A9B1A9D42F2DBE068039B984293
:10184C00B8BF184605E00B7804F1420584F8423025
:10185C008AE705B0BDE8F083451D0008561D000859
:10186C0010B5C9B202449042034605D01C78013031
:10187C008C42F8D1184610BD002010BD10B5431E87
:10188C000A44914204D011F8014B03F8014FF8E7D8
:10189C0010BD884210B501EB020301D8421E0BE0CB
:1018AC009842FBD28118D21AD34204D013F8014DBE
:1018BC0001F8014DF8E710BD994204D011F8014B25
:1018CC0002F8014FF8E710BD38B50546002944D0A1
:1018DC0051F8043C0C1F002BB8BFE41800F0D4F8EE
:1018EC001E4A1368114613B96360146030E0A342BA
:1018FC000DD92268A018834201BF18685B681218C2
:10190C00226063600C6023E0A24203D813465A683D
:10191C00002AF9D118681918A1420BD12168014489
:10192C0058188242196013D110685268014419602A
:10193C005A600DE002D90C232B6009E02168601875
:10194C00824201BF106852680918216062605C60B5
:10195C002846BDE8384000F098B838BD200100207A
:10196C0070B5CD1C25F0030508350C2D38BF0C25A2
:10197C00002D064601DBA94202D90C23336046E058
:10198C0000F082F8234B1C681A462146A1B10B6863
:10199C005B1B0ED40B2B03D90B60CC18CD501EE067
:1019AC008C420BBF63684B681360636018BF0C46B6
:1019BC0015E00C464968E9E7174C23681BB930461B
:1019CC0000F052F820602946304600F04DF8431CD8
:1019DC0018D0C41C24F00304A0420DD1256030465D
:1019EC0000F053F804F10B00231D20F00700C31A7C
:1019FC000ED05A42E25070BD211A304600F034F835
:101A0C000130EBD10C233360304600F03EF800205F
:101A1C0070BD00BF200100201C010020F8B5074656
:101A2C0015460E4621B91146BDE8F840FFF798BFA0
:101A3C001AB9FFF749FF2846F8BD00F027F8854290
:101A4C000ED929463846FFF78BFF044650B1314674
:101A5C002A46FFF713FF31463846FFF735FF01E002
:101A6C003046F8BD2046F8BD38B5064C0023054677
:101A7C0008462360FFF76AF8431C02D1236803B1C0
:101A8C002B6038BD240100207047704751F8040CBE
:101A9C000028BEBF091851F8043CC0180438704720
:101AAC002E2E2F73797374656D2F7372632F73746D
:101ABC006D333266312D7374647065726970682F82
:101ACC0073746D3332663130785F63616E2E6300F0
:101ADC002E2E2F73797374656D2F7372632F73743D
:101AEC006D333266312D7374647065726970682F52
:101AFC0073746D3332663130785F6770696F2E6343
:101B0C00000000002E2E2F73797374656D2F737285
:101B1C00632F73746D333266312D73746470657218
:101B2C006970682F73746D3332663130785F72630D
:101B3C00632E630061626F727428292C20657869AA
:101B4C0074696E672E2E2E002C2066756E63746978
:101B5C006F6E3A2000000000617373657274696FD8
:101B6C006E2022257322206661696C65643A2066BA
:101B7C00696C6520222573222C206C696E652025EA
:101B8C0064257325730A00006173736572745F704A
:101B9C006172616D2829206661696C65643A206602
:101BAC00696C6520222573222C206C696E652025BA
:101BBC00640A00006D61696E28617267633D25647B
:101BCC002C20617267763D5B000000002C20000029
:101BDC0022257322000000005D293B0A0000000052
:101BEC00537461636B206672616D653A0A00000084
:101BFC00205230203D2020253038580A00000000AB
:101C0C00205231203D2020253038580A0000000099
:101C1C00205232203D2020253038580A0000000088
:101C2C00205233203D2020253038580A0000000077
:101C3C0020523132203D20253038580A0000000057
:101C4C00204C52203D2020253038580A000000003E
:101C5C00205043203D2020253038580A0000000039
:101C6C0020505352203D20253038580A00000000E7
:101C7C004653522F4641523A0A0000002043465325
:101C8C0052203D2020253038580A00002048465369
:101C9C0052203D2020253038580A0000204446535D
:101CAC0052203D2020253038580A00002041465350
:101CBC0052203D2020253038580A0000204D4D463A
:101CCC004152203D20253038580A00002042464120
:101CDC0052203D2020253038580A00004D6973638E
:101CEC000A000000204C522F4558435F5245545572
:101CFC00524E3D20253038580A0000005B48617276
:101D0C00644661756C745D0A000000005B4275737B
:101D1C004661756C745D0A005B557361676546615D
:101D2C00756C745D0A000000232D302B2000686C4C
:101D3C004C006566674546470030313233343536E2
:101D4C00373839414243444546003031323334351B
:0B1D5C00363738396162636465660049
:101D680078563412940000200000000000000000A3
:101D780000000000010203040607080900A24A0443
:101D88001400000000000000000000000000000037
:101D9800000000000000000000000000000000003B
:101DA800000000000000000000000000000000002B
:101DB800000000000000000000000000000000001B
:101DC800000000000000000000000000000000000B
:101DD80000000000000000000000000000000000FB
:0C1DE80000000000240000203254769817
:040000050800010DE1
:00000001FF
